:1000000013C02DC02CC02BC02AC029C028C027C0B7
:1000100026C025C024C023C022C021C020C020C0CB
:100020001EC01DC01CC01BC011241FBECFEFD1E0DD
:10003000DEBFCDBF11E0A0E0B1E0E4EDF5E002C02D
:1000400005900D92A031B107D9F721E0A0E1B1E010
:1000500001C01D92A03DB207E1F71FD0B9C2D0CFB9
:100060001F920F920FB60F9211248F93EF93FF936D
:10007000F201E00FF11D8EB5808303950F71F2013F
:10008000E00FF11D80818EBD312CFF91EF918F919A
:100090000F900FBE0F901F901895CF93DF93CDB7A1
:1000A000DEB72C970FB6F894DEBF0FBECDBF80E150
:1000B00084B98FEF8AB98FEB87B982E08DB92A9A1C
:1000C00080EC8CBD8CB5837F8CBD81E08DBD80E2E2
:1000D000E0E7F1E0DF011D928A95E9F72F01332473
:1000E000339400E0809170018EBD812C912C612CA5
:1000F000712C80E090E021E030E022242394311044
:1001000002C01A9903C018861F8230C2F8943324A3
:10011000339400E040E2E0E7F1E0A0E1B1E00190DB
:100120000D924A95E1F7789440E050E0142F110FBA
:10013000110F60E070E06A01E3E0CC0CDD1CEA9591
:10014000E1F7E12FF0E0E05FFE4FA081AF70B0E09B
:10015000A050BF4FFC90D601A60FB71FA05DBE4FA9
:10016000FC92E081E295EF70F0E0E050FF4FA0815B
:10017000FB01EC0DFD1DEF5CFE4FA0831F5F6E5F6A
:100180007F4F68307105E9F64F5F5F4F483051058A
:1001900069F62A30310509F4B2CF2130310549F52D
:1001A0008430910564F180E4E0E3F1E011928A95F6
:1001B000E9F780E090E0A30163E0440F551F6A95E2
:1001C000E1F76FE3FA01E80FF91FE05DFE4F60838E
:1001D000019688309105B1F7FFEF6F1A7F0A80E032
:1001E00090E048E06416710409F089CF22E030E025
:1001F00086CF2230310561F58430910514F40196E3
:100200007ECF80E4A0E3B1E01D928A95E9F780E01B
:1002100090E04FE3FC0153E0EE0FFF1F5A95E1F72A
:10022000E80DF91DE05DFE4F408301968830910591
:1002300089F7BFEF8B1A9B0A80E090E0E8E08E160A
:10024000910409F05CCF1A994DC123E030E057CFFB
:100250002330310579F5A0E0B1E080E090E02D9108
:10026000FC0133E0EE0FFF1F3A95E1F7E05DFE4F32
:10027000208321832283238301968830910579F797
:10028000A0E1B1E080E090E02E91FC0113E0EE0FE0
:10029000FF1F1A95E1F7E05DFE4F24832583268337
:1002A000278301968830910579F780E090E024E07B
:1002B00030E025CF2430310539F4883791050CF42E
:1002C000A9C027E030E0F6C02730310509F03FC073
:1002D00080E090E020E030E0AC01B3E0440F551F37
:1002E000BA95E1F7FA01E20FF31FE05DFE4F1082CD
:1002F0002F5F3F4F28303105A9F7019688309105CF
:1003000049F780E090E03FE3FC01A3E0EE0FFF1F20
:10031000AA95E1F7E05DFE4F2FE337830196883021
:10032000910591F71092300110923801109240011E
:1003300020934801109250011092580120936001BF
:100340001092680180E090E028E030E0D8CE2830BC
:10035000310539F4883791050CF45CC025E030E0B4
:10036000A9C02530310509F04BC020E030E0B22EA5
:10037000122F110F110FB8E0EB2EF12CE21AF30A35
:1003800067E070E0621B730BA901E3E0440F551FA7
:10039000EA95E1F75A8349836B01F3E0CC0CDD1C4D
:1003A000FA95E1F74B2D50E04E155F0504F5DA01A3
:1003B000E3E0AA0FBB1FEA95E1F7FD01E20FF31F8F
:1003C000E057FE4F1083A60FB71FA057BE4F1C93D8
:1003D000E981FA81E40FF51FE057FE4F1083F60123
:1003E000E40FF51FE057FE4F1083B394DBCF2F5F70
:1003F0003F4F2430310509F0BACF26E030E07FCE00
:100400002630310509F059C0823091051CF080E09A
:1004100090E002C001964EC040E050E0BC01A3E075
:10042000660F771FAA95E1F7FB01E40FF51FE05770
:10043000FE4FA081AF3011F4AEE10DC0A081A1311B
:1004400011F4108209C0A081A03118F4A081AF5F1F
:1004500002C0A081A150A0834F5F5F4F483051057B
:1004600019F7019688309105B9F680E090E040E0F8
:1004700050E0DC01F3E0AA0FBB1FFA95E1F7BD01E4
:10048000640F751FFB01E057FE4FE081EF70F0E055
:10049000E050FF4F1081605D7E4FFB0110834F5F86
:1004A0005F4F4830510559F7019688309105F9F6AC
:1004B00080E090E01A9916C022CE2930310509F06B
:1004C0001ECE789420E2E0E7F1E0DF011D922A954C
:1004D000E9F720E4E0E3F1E011922A95E9F72AE058
:1004E00030E00DCE29E030E00ACE1BB860817617EF
:1004F00008F46AC060E0A981BA811C91711708F400
:1005000065C010E0AB81BC81EC907E1508F46160A1
:10051000AD81BE81EC907E1508F46260D501EC904F
:100520007E1508F46460A985BA85EC907E1508F400
:100530006860AB85BC85EC907E1508F46061D601DF
:10054000EC907E1508F460621EB968B9FBB8BAE297
:10055000BA95F1F700C07F5F7F3339F6EF81F885F8
:100560003196F887EF83389709F413CEF22C0F8079
:1005700001C0FF0C0A94EAF770E0EF81F88543E0D0
:10058000EE0FFF1F4A95E1F7E05DFE4FAF014F5FB1
:100590005F4F5A834983DF011296BC83AB834E5F62
:1005A0005F4F5E834D835F0154E0A50EB11C13962F
:1005B000BA87A987AF014A5F5F4F5C874B876F019E
:1005C00057E0C50ED11C91CF60E895CF12E09ACFCD
:0405D000F894FFCFCD
:1005D4000001020304050607080B0F141A232F3F1A
:00000001FF
